{
  "contractName": "ArtGalleryNFT",
  "abi": [
    {
      "inputs": [],
      "stateMutability": "nonpayable",
      "type": "constructor"
    },
    {
      "inputs": [
        {
          "internalType": "address",
          "name": "sender",
          "type": "address"
        },
        {
          "internalType": "uint256",
          "name": "tokenId",
          "type": "uint256"
        },
        {
          "internalType": "address",
          "name": "owner",
          "type": "address"
        }
      ],
      "name": "ERC721IncorrectOwner",
      "type": "error"
    },
    {
      "inputs": [
        {
          "internalType": "address",
          "name": "operator",
          "type": "address"
        },
        {
          "internalType": "uint256",
          "name": "tokenId",
          "type": "uint256"
        }
      ],
      "name": "ERC721InsufficientApproval",
      "type": "error"
    },
    {
      "inputs": [
        {
          "internalType": "address",
          "name": "approver",
          "type": "address"
        }
      ],
      "name": "ERC721InvalidApprover",
      "type": "error"
    },
    {
      "inputs": [
        {
          "internalType": "address",
          "name": "operator",
          "type": "address"
        }
      ],
      "name": "ERC721InvalidOperator",
      "type": "error"
    },
    {
      "inputs": [
        {
          "internalType": "address",
          "name": "owner",
          "type": "address"
        }
      ],
      "name": "ERC721InvalidOwner",
      "type": "error"
    },
    {
      "inputs": [
        {
          "internalType": "address",
          "name": "receiver",
          "type": "address"
        }
      ],
      "name": "ERC721InvalidReceiver",
      "type": "error"
    },
    {
      "inputs": [
        {
          "internalType": "address",
          "name": "sender",
          "type": "address"
        }
      ],
      "name": "ERC721InvalidSender",
      "type": "error"
    },
    {
      "inputs": [
        {
          "internalType": "uint256",
          "name": "tokenId",
          "type": "uint256"
        }
      ],
      "name": "ERC721NonexistentToken",
      "type": "error"
    },
    {
      "inputs": [
        {
          "internalType": "address",
          "name": "owner",
          "type": "address"
        }
      ],
      "name": "OwnableInvalidOwner",
      "type": "error"
    },
    {
      "inputs": [
        {
          "internalType": "address",
          "name": "account",
          "type": "address"
        }
      ],
      "name": "OwnableUnauthorizedAccount",
      "type": "error"
    },
    {
      "anonymous": false,
      "inputs": [
        {
          "indexed": true,
          "internalType": "address",
          "name": "owner",
          "type": "address"
        },
        {
          "indexed": true,
          "internalType": "address",
          "name": "approved",
          "type": "address"
        },
        {
          "indexed": true,
          "internalType": "uint256",
          "name": "tokenId",
          "type": "uint256"
        }
      ],
      "name": "Approval",
      "type": "event"
    },
    {
      "anonymous": false,
      "inputs": [
        {
          "indexed": true,
          "internalType": "address",
          "name": "owner",
          "type": "address"
        },
        {
          "indexed": true,
          "internalType": "address",
          "name": "operator",
          "type": "address"
        },
        {
          "indexed": false,
          "internalType": "bool",
          "name": "approved",
          "type": "bool"
        }
      ],
      "name": "ApprovalForAll",
      "type": "event"
    },
    {
      "anonymous": false,
      "inputs": [
        {
          "indexed": false,
          "internalType": "uint256",
          "name": "_fromTokenId",
          "type": "uint256"
        },
        {
          "indexed": false,
          "internalType": "uint256",
          "name": "_toTokenId",
          "type": "uint256"
        }
      ],
      "name": "BatchMetadataUpdate",
      "type": "event"
    },
    {
      "anonymous": false,
      "inputs": [
        {
          "indexed": false,
          "internalType": "uint256",
          "name": "tokenId",
          "type": "uint256"
        },
        {
          "indexed": false,
          "internalType": "uint256",
          "name": "price",
          "type": "uint256"
        }
      ],
      "name": "ListedForSale",
      "type": "event"
    },
    {
      "anonymous": false,
      "inputs": [
        {
          "indexed": false,
          "internalType": "uint256",
          "name": "_tokenId",
          "type": "uint256"
        }
      ],
      "name": "MetadataUpdate",
      "type": "event"
    },
    {
      "anonymous": false,
      "inputs": [
        {
          "indexed": false,
          "internalType": "uint256",
          "name": "tokenId",
          "type": "uint256"
        },
        {
          "indexed": false,
          "internalType": "address",
          "name": "creator",
          "type": "address"
        },
        {
          "indexed": false,
          "internalType": "string",
          "name": "tokenURI",
          "type": "string"
        }
      ],
      "name": "Minted",
      "type": "event"
    },
    {
      "anonymous": false,
      "inputs": [
        {
          "indexed": true,
          "internalType": "address",
          "name": "previousOwner",
          "type": "address"
        },
        {
          "indexed": true,
          "internalType": "address",
          "name": "newOwner",
          "type": "address"
        }
      ],
      "name": "OwnershipTransferred",
      "type": "event"
    },
    {
      "anonymous": false,
      "inputs": [
        {
          "indexed": false,
          "internalType": "uint256",
          "name": "tokenId",
          "type": "uint256"
        },
        {
          "indexed": false,
          "internalType": "address",
          "name": "buyer",
          "type": "address"
        },
        {
          "indexed": false,
          "internalType": "uint256",
          "name": "price",
          "type": "uint256"
        }
      ],
      "name": "Sold",
      "type": "event"
    },
    {
      "anonymous": false,
      "inputs": [
        {
          "indexed": true,
          "internalType": "address",
          "name": "from",
          "type": "address"
        },
        {
          "indexed": true,
          "internalType": "address",
          "name": "to",
          "type": "address"
        },
        {
          "indexed": true,
          "internalType": "uint256",
          "name": "tokenId",
          "type": "uint256"
        }
      ],
      "name": "Transfer",
      "type": "event"
    },
    {
      "inputs": [
        {
          "internalType": "address",
          "name": "to",
          "type": "address"
        },
        {
          "internalType": "uint256",
          "name": "tokenId",
          "type": "uint256"
        }
      ],
      "name": "approve",
      "outputs": [],
      "stateMutability": "nonpayable",
      "type": "function"
    },
    {
      "inputs": [
        {
          "internalType": "address",
          "name": "owner",
          "type": "address"
        }
      ],
      "name": "balanceOf",
      "outputs": [
        {
          "internalType": "uint256",
          "name": "",
          "type": "uint256"
        }
      ],
      "stateMutability": "view",
      "type": "function"
    },
    {
      "inputs": [
        {
          "internalType": "uint256",
          "name": "",
          "type": "uint256"
        }
      ],
      "name": "creators",
      "outputs": [
        {
          "internalType": "address",
          "name": "",
          "type": "address"
        }
      ],
      "stateMutability": "view",
      "type": "function"
    },
    {
      "inputs": [
        {
          "internalType": "uint256",
          "name": "tokenId",
          "type": "uint256"
        }
      ],
      "name": "getApproved",
      "outputs": [
        {
          "internalType": "address",
          "name": "",
          "type": "address"
        }
      ],
      "stateMutability": "view",
      "type": "function"
    },
    {
      "inputs": [
        {
          "internalType": "address",
          "name": "owner",
          "type": "address"
        },
        {
          "internalType": "address",
          "name": "operator",
          "type": "address"
        }
      ],
      "name": "isApprovedForAll",
      "outputs": [
        {
          "internalType": "bool",
          "name": "",
          "type": "bool"
        }
      ],
      "stateMutability": "view",
      "type": "function"
    },
    {
      "inputs": [
        {
          "internalType": "uint256",
          "name": "",
          "type": "uint256"
        }
      ],
      "name": "listedForSale",
      "outputs": [
        {
          "internalType": "bool",
          "name": "",
          "type": "bool"
        }
      ],
      "stateMutability": "view",
      "type": "function"
    },
    {
      "inputs": [],
      "name": "name",
      "outputs": [
        {
          "internalType": "string",
          "name": "",
          "type": "string"
        }
      ],
      "stateMutability": "view",
      "type": "function"
    },
    {
      "inputs": [],
      "name": "owner",
      "outputs": [
        {
          "internalType": "address",
          "name": "",
          "type": "address"
        }
      ],
      "stateMutability": "view",
      "type": "function"
    },
    {
      "inputs": [
        {
          "internalType": "uint256",
          "name": "tokenId",
          "type": "uint256"
        }
      ],
      "name": "ownerOf",
      "outputs": [
        {
          "internalType": "address",
          "name": "",
          "type": "address"
        }
      ],
      "stateMutability": "view",
      "type": "function"
    },
    {
      "inputs": [
        {
          "internalType": "uint256",
          "name": "",
          "type": "uint256"
        }
      ],
      "name": "prices",
      "outputs": [
        {
          "internalType": "uint256",
          "name": "",
          "type": "uint256"
        }
      ],
      "stateMutability": "view",
      "type": "function"
    },
    {
      "inputs": [],
      "name": "renounceOwnership",
      "outputs": [],
      "stateMutability": "nonpayable",
      "type": "function"
    },
    {
      "inputs": [
        {
          "internalType": "address",
          "name": "from",
          "type": "address"
        },
        {
          "internalType": "address",
          "name": "to",
          "type": "address"
        },
        {
          "internalType": "uint256",
          "name": "tokenId",
          "type": "uint256"
        }
      ],
      "name": "safeTransferFrom",
      "outputs": [],
      "stateMutability": "nonpayable",
      "type": "function"
    },
    {
      "inputs": [
        {
          "internalType": "address",
          "name": "from",
          "type": "address"
        },
        {
          "internalType": "address",
          "name": "to",
          "type": "address"
        },
        {
          "internalType": "uint256",
          "name": "tokenId",
          "type": "uint256"
        },
        {
          "internalType": "bytes",
          "name": "data",
          "type": "bytes"
        }
      ],
      "name": "safeTransferFrom",
      "outputs": [],
      "stateMutability": "nonpayable",
      "type": "function"
    },
    {
      "inputs": [
        {
          "internalType": "address",
          "name": "operator",
          "type": "address"
        },
        {
          "internalType": "bool",
          "name": "approved",
          "type": "bool"
        }
      ],
      "name": "setApprovalForAll",
      "outputs": [],
      "stateMutability": "nonpayable",
      "type": "function"
    },
    {
      "inputs": [
        {
          "internalType": "bytes4",
          "name": "interfaceId",
          "type": "bytes4"
        }
      ],
      "name": "supportsInterface",
      "outputs": [
        {
          "internalType": "bool",
          "name": "",
          "type": "bool"
        }
      ],
      "stateMutability": "view",
      "type": "function"
    },
    {
      "inputs": [],
      "name": "symbol",
      "outputs": [
        {
          "internalType": "string",
          "name": "",
          "type": "string"
        }
      ],
      "stateMutability": "view",
      "type": "function"
    },
    {
      "inputs": [],
      "name": "tokenCounter",
      "outputs": [
        {
          "internalType": "uint256",
          "name": "",
          "type": "uint256"
        }
      ],
      "stateMutability": "view",
      "type": "function"
    },
    {
      "inputs": [
        {
          "internalType": "uint256",
          "name": "tokenId",
          "type": "uint256"
        }
      ],
      "name": "tokenURI",
      "outputs": [
        {
          "internalType": "string",
          "name": "",
          "type": "string"
        }
      ],
      "stateMutability": "view",
      "type": "function"
    },
    {
      "inputs": [
        {
          "internalType": "address",
          "name": "from",
          "type": "address"
        },
        {
          "internalType": "address",
          "name": "to",
          "type": "address"
        },
        {
          "internalType": "uint256",
          "name": "tokenId",
          "type": "uint256"
        }
      ],
      "name": "transferFrom",
      "outputs": [],
      "stateMutability": "nonpayable",
      "type": "function"
    },
    {
      "inputs": [
        {
          "internalType": "address",
          "name": "newOwner",
          "type": "address"
        }
      ],
      "name": "transferOwnership",
      "outputs": [],
      "stateMutability": "nonpayable",
      "type": "function"
    },
    {
      "inputs": [
        {
          "internalType": "string",
          "name": "tokenURI",
          "type": "string"
        }
      ],
      "name": "mintNFT",
      "outputs": [
        {
          "internalType": "uint256",
          "name": "",
          "type": "uint256"
        }
      ],
      "stateMutability": "nonpayable",
      "type": "function"
    },
    {
      "inputs": [
        {
          "internalType": "uint256",
          "name": "tokenId",
          "type": "uint256"
        },
        {
          "internalType": "uint256",
          "name": "price",
          "type": "uint256"
        }
      ],
      "name": "listNFT",
      "outputs": [],
      "stateMutability": "nonpayable",
      "type": "function"
    },
    {
      "inputs": [
        {
          "internalType": "uint256",
          "name": "tokenId",
          "type": "uint256"
        }
      ],
      "name": "buyNFT",
      "outputs": [],
      "stateMutability": "payable",
      "type": "function"
    },
    {
      "inputs": [
        {
          "internalType": "uint256",
          "name": "tokenId",
          "type": "uint256"
        }
      ],
      "name": "getCreator",
      "outputs": [
        {
          "internalType": "address",
          "name": "",
          "type": "address"
        }
      ],
      "stateMutability": "view",
      "type": "function"
    }
  ],
  "bytecode": "0x608060405234801562000010575f80fd5b50336040518060400160405280600d81526020017f41727447616c6c6572794e4654000000000000000000000000000000000000008152506040518060400160405280600581526020017f41474e4654000000000000000000000000000000000000000000000000000000815250815f90816200008e91906200045c565b508060019081620000a091906200045c565b5050505f73ffffffffffffffffffffffffffffffffffffffff168173ffffffffffffffffffffffffffffffffffffffff160362000116575f6040517f1e4fbdf70000000000000000000000000000000000000000000000000000000081526004016200010d919062000583565b60405180910390fd5b62000127816200013560201b60201c565b505f6008819055506200059e565b5f60075f9054906101000a900473ffffffffffffffffffffffffffffffffffffffff1690508160075f6101000a81548173ffffffffffffffffffffffffffffffffffffffff021916908373ffffffffffffffffffffffffffffffffffffffff1602179055508173ffffffffffffffffffffffffffffffffffffffff168173ffffffffffffffffffffffffffffffffffffffff167f8be0079c531659141344cd1fd0a4f28419497f9722a3daafe3b4186f6b6457e060405160405180910390a35050565b5f81519050919050565b7f4e487b71000000000000000000000000000000000000000000000000000000005f52604160045260245ffd5b7f4e487b71000000000000000000000000000000000000000000000000000000005f52602260045260245ffd5b5f60028204905060018216806200027457607f821691505b6020821081036200028a57620002896200022f565b5b50919050565b5f819050815f5260205f209050919050565b5f6020601f8301049050919050565b5f82821b905092915050565b5f60088302620002ee7fffffffffffffffffffffffffffffffffffffffffffffffffffffffffffffffff82620002b1565b620002fa8683620002b1565b95508019841693508086168417925050509392505050565b5f819050919050565b5f819050919050565b5f620003446200033e620003388462000312565b6200031b565b62000312565b9050919050565b5f819050919050565b6200035f8362000324565b620003776200036e826200034b565b848454620002bd565b825550505050565b5f90565b6200038d6200037f565b6200039a81848462000354565b505050565b5b81811015620003c157620003b55f8262000383565b600181019050620003a0565b5050565b601f8211156200041057620003da8162000290565b620003e584620002a2565b81016020851015620003f5578190505b6200040d6200040485620002a2565b8301826200039f565b50505b505050565b5f82821c905092915050565b5f620004325f198460080262000415565b1980831691505092915050565b5f6200044c838362000421565b9150826002028217905092915050565b6200046782620001f8565b67ffffffffffffffff81111562000483576200048262000202565b5b6200048f82546200025c565b6200049c828285620003c5565b5f60209050601f831160018114620004d2575f8415620004bd578287015190505b620004c985826200043f565b86555062000538565b601f198416620004e28662000290565b5f5b828110156200050b57848901518255600182019150602085019450602081019050620004e4565b868310156200052b578489015162000527601f89168262000421565b8355505b6001600288020188555050505b505050505050565b5f73ffffffffffffffffffffffffffffffffffffffff82169050919050565b5f6200056b8262000540565b9050919050565b6200057d816200055f565b82525050565b5f602082019050620005985f83018462000572565b92915050565b612fdd80620005ac5f395ff3fe60806040526004361061014a575f3560e01c806394383f14116100b5578063cd53d08e1161006e578063cd53d08e14610492578063d082e381146104ce578063d48e638a146104f8578063e985e9c514610534578063f2fde38b14610570578063fb37e883146105985761014a565b806394383f141461037857806395d89b41146103a0578063a22cb465146103ca578063b88d4fde146103f2578063bc31c1c11461041a578063c87b56dd146104565761014a565b806351ed82881161010757806351ed82881461026857806354c04873146102845780636352211e146102c057806370a08231146102fc578063715018a6146103385780638da5cb5b1461034e5761014a565b806301ffc9a71461014e57806306fdde031461018a578063081812fc146101b4578063095ea7b3146101f057806323b872dd1461021857806342842e0e14610240575b5f80fd5b348015610159575f80fd5b50610174600480360381019061016f919061220d565b6105d4565b6040516101819190612252565b60405180910390f35b348015610195575f80fd5b5061019e610634565b6040516101ab91906122f5565b60405180910390f35b3480156101bf575f80fd5b506101da60048036038101906101d59190612348565b6106c3565b6040516101e791906123b2565b60405180910390f35b3480156101fb575f80fd5b50610216600480360381019061021191906123f5565b6106de565b005b348015610223575f80fd5b5061023e60048036038101906102399190612433565b6106f4565b005b34801561024b575f80fd5b5061026660048036038101906102619190612433565b6107f3565b005b610282600480360381019061027d9190612348565b610812565b005b34801561028f575f80fd5b506102aa60048036038101906102a59190612348565b61099a565b6040516102b79190612252565b60405180910390f35b3480156102cb575f80fd5b506102e660048036038101906102e19190612348565b6109b7565b6040516102f391906123b2565b60405180910390f35b348015610307575f80fd5b50610322600480360381019061031d9190612483565b6109c8565b60405161032f91906124bd565b60405180910390f35b348015610343575f80fd5b5061034c610a7e565b005b348015610359575f80fd5b50610362610a91565b60405161036f91906123b2565b60405180910390f35b348015610383575f80fd5b5061039e600480360381019061039991906124d6565b610ab9565b005b3480156103ab575f80fd5b506103b4610bed565b6040516103c191906122f5565b60405180910390f35b3480156103d5575f80fd5b506103f060048036038101906103eb919061253e565b610c7d565b005b3480156103fd575f80fd5b50610418600480360381019061041391906126a8565b610c93565b005b348015610425575f80fd5b50610440600480360381019061043b9190612348565b610cb0565b60405161044d91906124bd565b60405180910390f35b348015610461575f80fd5b5061047c60048036038101906104779190612348565b610cc5565b60405161048991906122f5565b60405180910390f35b34801561049d575f80fd5b506104b860048036038101906104b39190612348565b610dd0565b6040516104c591906123b2565b60405180910390f35b3480156104d9575f80fd5b506104e2610e00565b6040516104ef91906124bd565b60405180910390f35b348015610503575f80fd5b5061051e60048036038101906105199190612348565b610e06565b60405161052b91906123b2565b60405180910390f35b34801561053f575f80fd5b5061055a60048036038101906105559190612728565b610e3f565b6040516105679190612252565b60405180910390f35b34801561057b575f80fd5b5061059660048036038101906105919190612483565b610ecd565b005b3480156105a3575f80fd5b506105be60048036038101906105b99190612804565b610f51565b6040516105cb91906124bd565b60405180910390f35b5f634906490660e01b7bffffffffffffffffffffffffffffffffffffffffffffffffffffffff1916827bffffffffffffffffffffffffffffffffffffffffffffffffffffffff1916148061062d575061062c82611016565b5b9050919050565b60605f805461064290612878565b80601f016020809104026020016040519081016040528092919081815260200182805461066e90612878565b80156106b95780601f10610690576101008083540402835291602001916106b9565b820191905f5260205f20905b81548152906001019060200180831161069c57829003601f168201915b5050505050905090565b5f6106cd826110f7565b506106d78261117d565b9050919050565b6106f082826106eb6111b6565b6111bd565b5050565b5f73ffffffffffffffffffffffffffffffffffffffff168273ffffffffffffffffffffffffffffffffffffffff1603610764575f6040517f64a0ae9200000000000000000000000000000000000000000000000000000000815260040161075b91906123b2565b60405180910390fd5b5f61077783836107726111b6565b6111cf565b90508373ffffffffffffffffffffffffffffffffffffffff168173ffffffffffffffffffffffffffffffffffffffff16146107ed578382826040517f64283d7b0000000000000000000000000000000000000000000000000000000081526004016107e4939291906128a8565b60405180910390fd5b50505050565b61080d83838360405180602001604052805f815250610c93565b505050565b600b5f8281526020019081526020015f205f9054906101000a900460ff1661086f576040517f08c379a000000000000000000000000000000000000000000000000000000000815260040161086690612927565b60405180910390fd5b600a5f8281526020019081526020015f205434146108c2576040517f08c379a00000000000000000000000000000000000000000000000000000000081526004016108b99061298f565b60405180910390fd5b5f6108cc826109b7565b90506108d98133846113da565b8073ffffffffffffffffffffffffffffffffffffffff166108fc3490811502906040515f60405180830381858888f1935050505015801561091c573d5f803e3d5ffd5b505f600b5f8481526020019081526020015f205f6101000a81548160ff0219169083151502179055505f600a5f8481526020019081526020015f20819055507f66f5cd880edf48cdde6c966e5da0784fcc4c5e85572b8b3b62c4357798d447d782333460405161098e939291906129ad565b60405180910390a15050565b600b602052805f5260405f205f915054906101000a900460ff1681565b5f6109c1826110f7565b9050919050565b5f8073ffffffffffffffffffffffffffffffffffffffff168273ffffffffffffffffffffffffffffffffffffffff1603610a39575f6040517f89c62b64000000000000000000000000000000000000000000000000000000008152600401610a3091906123b2565b60405180910390fd5b60035f8373ffffffffffffffffffffffffffffffffffffffff1673ffffffffffffffffffffffffffffffffffffffff1681526020019081526020015f20549050919050565b610a86611542565b610a8f5f6115c9565b565b5f60075f9054906101000a900473ffffffffffffffffffffffffffffffffffffffff16905090565b3373ffffffffffffffffffffffffffffffffffffffff16610ad9836109b7565b73ffffffffffffffffffffffffffffffffffffffff1614610b2f576040517f08c379a0000000000000000000000000000000000000000000000000000000008152600401610b2690612a2c565b60405180910390fd5b5f8111610b71576040517f08c379a0000000000000000000000000000000000000000000000000000000008152600401610b6890612aba565b60405180910390fd5b80600a5f8481526020019081526020015f20819055506001600b5f8481526020019081526020015f205f6101000a81548160ff0219169083151502179055507f27aebf2e0e5cf25f00bd3797d26b69f66ac7ccb85a55702906e672e9cb7d1c258282604051610be1929190612ad8565b60405180910390a15050565b606060018054610bfc90612878565b80601f0160208091040260200160405190810160405280929190818152602001828054610c2890612878565b8015610c735780601f10610c4a57610100808354040283529160200191610c73565b820191905f5260205f20905b815481529060010190602001808311610c5657829003601f168201915b5050505050905090565b610c8f610c886111b6565b838361168c565b5050565b610c9e8484846106f4565b610caa848484846117f5565b50505050565b600a602052805f5260405f205f915090505481565b6060610cd0826110f7565b505f60065f8481526020019081526020015f208054610cee90612878565b80601f0160208091040260200160405190810160405280929190818152602001828054610d1a90612878565b8015610d655780601f10610d3c57610100808354040283529160200191610d65565b820191905f5260205f20905b815481529060010190602001808311610d4857829003601f168201915b505050505090505f610d756119a7565b90505f815103610d89578192505050610dcb565b5f82511115610dbd578082604051602001610da5929190612b39565b60405160208183030381529060405292505050610dcb565b610dc6846119bd565b925050505b919050565b6009602052805f5260405f205f915054906101000a900473ffffffffffffffffffffffffffffffffffffffff1681565b60085481565b5f60095f8381526020019081526020015f205f9054906101000a900473ffffffffffffffffffffffffffffffffffffffff169050919050565b5f60055f8473ffffffffffffffffffffffffffffffffffffffff1673ffffffffffffffffffffffffffffffffffffffff1681526020019081526020015f205f8373ffffffffffffffffffffffffffffffffffffffff1673ffffffffffffffffffffffffffffffffffffffff1681526020019081526020015f205f9054906101000a900460ff16905092915050565b610ed5611542565b5f73ffffffffffffffffffffffffffffffffffffffff168173ffffffffffffffffffffffffffffffffffffffff1603610f45575f6040517f1e4fbdf7000000000000000000000000000000000000000000000000000000008152600401610f3c91906123b2565b60405180910390fd5b610f4e816115c9565b50565b5f806008549050610f623382611a23565b610f6c8184611a40565b3360095f8381526020019081526020015f205f6101000a81548173ffffffffffffffffffffffffffffffffffffffff021916908373ffffffffffffffffffffffffffffffffffffffff16021790555060085f815480929190610fcd90612b89565b91905055507f3b8a974a6971dbe70c8718ec80406b2790d2aa5477b6a5bed3d94fa19e06d60d81338560405161100593929190612bd0565b60405180910390a180915050919050565b5f7f80ac58cd000000000000000000000000000000000000000000000000000000007bffffffffffffffffffffffffffffffffffffffffffffffffffffffff1916827bffffffffffffffffffffffffffffffffffffffffffffffffffffffff191614806110e057507f5b5e139f000000000000000000000000000000000000000000000000000000007bffffffffffffffffffffffffffffffffffffffffffffffffffffffff1916827bffffffffffffffffffffffffffffffffffffffffffffffffffffffff1916145b806110f057506110ef82611a9a565b5b9050919050565b5f8061110283611b03565b90505f73ffffffffffffffffffffffffffffffffffffffff168173ffffffffffffffffffffffffffffffffffffffff160361117457826040517f7e27328900000000000000000000000000000000000000000000000000000000815260040161116b91906124bd565b60405180910390fd5b80915050919050565b5f60045f8381526020019081526020015f205f9054906101000a900473ffffffffffffffffffffffffffffffffffffffff169050919050565b5f33905090565b6111ca8383836001611b3c565b505050565b5f806111da84611b03565b90505f73ffffffffffffffffffffffffffffffffffffffff168373ffffffffffffffffffffffffffffffffffffffff161461121b5761121a818486611cfb565b5b5f73ffffffffffffffffffffffffffffffffffffffff168173ffffffffffffffffffffffffffffffffffffffff16146112a65761125a5f855f80611b3c565b600160035f8373ffffffffffffffffffffffffffffffffffffffff1673ffffffffffffffffffffffffffffffffffffffff1681526020019081526020015f205f82825403925050819055505b5f73ffffffffffffffffffffffffffffffffffffffff168573ffffffffffffffffffffffffffffffffffffffff161461132557600160035f8773ffffffffffffffffffffffffffffffffffffffff1673ffffffffffffffffffffffffffffffffffffffff1681526020019081526020015f205f82825401925050819055505b8460025f8681526020019081526020015f205f6101000a81548173ffffffffffffffffffffffffffffffffffffffff021916908373ffffffffffffffffffffffffffffffffffffffff160217905550838573ffffffffffffffffffffffffffffffffffffffff168273ffffffffffffffffffffffffffffffffffffffff167fddf252ad1be2c89b69c2b068fc378daa952ba7f163c4a11628f55a4df523b3ef60405160405180910390a4809150509392505050565b5f73ffffffffffffffffffffffffffffffffffffffff168273ffffffffffffffffffffffffffffffffffffffff160361144a575f6040517f64a0ae9200000000000000000000000000000000000000000000000000000000815260040161144191906123b2565b60405180910390fd5b5f61145683835f6111cf565b90505f73ffffffffffffffffffffffffffffffffffffffff168173ffffffffffffffffffffffffffffffffffffffff16036114c857816040517f7e2732890000000000000000000000000000000000000000000000000000000081526004016114bf91906124bd565b60405180910390fd5b8373ffffffffffffffffffffffffffffffffffffffff168173ffffffffffffffffffffffffffffffffffffffff161461153c578382826040517f64283d7b000000000000000000000000000000000000000000000000000000008152600401611533939291906128a8565b60405180910390fd5b50505050565b61154a6111b6565b73ffffffffffffffffffffffffffffffffffffffff16611568610a91565b73ffffffffffffffffffffffffffffffffffffffff16146115c75761158b6111b6565b6040517f118cdaa70000000000000000000000000000000000000000000000000000000081526004016115be91906123b2565b60405180910390fd5b565b5f60075f9054906101000a900473ffffffffffffffffffffffffffffffffffffffff1690508160075f6101000a81548173ffffffffffffffffffffffffffffffffffffffff021916908373ffffffffffffffffffffffffffffffffffffffff1602179055508173ffffffffffffffffffffffffffffffffffffffff168173ffffffffffffffffffffffffffffffffffffffff167f8be0079c531659141344cd1fd0a4f28419497f9722a3daafe3b4186f6b6457e060405160405180910390a35050565b5f73ffffffffffffffffffffffffffffffffffffffff168273ffffffffffffffffffffffffffffffffffffffff16036116fc57816040517f5b08ba180000000000000000000000000000000000000000000000000000000081526004016116f391906123b2565b60405180910390fd5b8060055f8573ffffffffffffffffffffffffffffffffffffffff1673ffffffffffffffffffffffffffffffffffffffff1681526020019081526020015f205f8473ffffffffffffffffffffffffffffffffffffffff1673ffffffffffffffffffffffffffffffffffffffff1681526020019081526020015f205f6101000a81548160ff0219169083151502179055508173ffffffffffffffffffffffffffffffffffffffff168373ffffffffffffffffffffffffffffffffffffffff167f17307eab39ab6107e8899845ad3d59bd9653f200f220920489ca2b5937696c31836040516117e89190612252565b60405180910390a3505050565b5f8373ffffffffffffffffffffffffffffffffffffffff163b11156119a1578273ffffffffffffffffffffffffffffffffffffffff1663150b7a026118386111b6565b8685856040518563ffffffff1660e01b815260040161185a9493929190612c5e565b6020604051808303815f875af192505050801561189557506040513d601f19601f820116820180604052508101906118929190612cbc565b60015b611916573d805f81146118c3576040519150601f19603f3d011682016040523d82523d5f602084013e6118c8565b606091505b505f81510361190e57836040517f64a0ae9200000000000000000000000000000000000000000000000000000000815260040161190591906123b2565b60405180910390fd5b805181602001fd5b63150b7a0260e01b7bffffffffffffffffffffffffffffffffffffffffffffffffffffffff1916817bffffffffffffffffffffffffffffffffffffffffffffffffffffffff19161461199f57836040517f64a0ae9200000000000000000000000000000000000000000000000000000000815260040161199691906123b2565b60405180910390fd5b505b50505050565b606060405180602001604052805f815250905090565b60606119c8826110f7565b505f6119d26119a7565b90505f8151116119f05760405180602001604052805f815250611a1b565b806119fa84611dbe565b604051602001611a0b929190612b39565b6040516020818303038152906040525b915050919050565b611a3c828260405180602001604052805f815250611e88565b5050565b8060065f8481526020019081526020015f209081611a5e9190612e84565b507ff8e1a15aba9398e019f0b49df1a4fde98ee17ae345cb5f6b5e2c27f5033e8ce782604051611a8e91906124bd565b60405180910390a15050565b5f7f01ffc9a7000000000000000000000000000000000000000000000000000000007bffffffffffffffffffffffffffffffffffffffffffffffffffffffff1916827bffffffffffffffffffffffffffffffffffffffffffffffffffffffff1916149050919050565b5f60025f8381526020019081526020015f205f9054906101000a900473ffffffffffffffffffffffffffffffffffffffff169050919050565b8080611b7457505f73ffffffffffffffffffffffffffffffffffffffff168273ffffffffffffffffffffffffffffffffffffffff1614155b15611ca6575f611b83846110f7565b90505f73ffffffffffffffffffffffffffffffffffffffff168373ffffffffffffffffffffffffffffffffffffffff1614158015611bed57508273ffffffffffffffffffffffffffffffffffffffff168173ffffffffffffffffffffffffffffffffffffffff1614155b8015611c005750611bfe8184610e3f565b155b15611c4257826040517fa9fbf51f000000000000000000000000000000000000000000000000000000008152600401611c3991906123b2565b60405180910390fd5b8115611ca457838573ffffffffffffffffffffffffffffffffffffffff168273ffffffffffffffffffffffffffffffffffffffff167f8c5be1e5ebec7d5bd14f71427d1e84f3dd0314c0f7b2291e5b200ac8c7c3b92560405160405180910390a45b505b8360045f8581526020019081526020015f205f6101000a81548173ffffffffffffffffffffffffffffffffffffffff021916908373ffffffffffffffffffffffffffffffffffffffff16021790555050505050565b611d06838383611ea3565b611db9575f73ffffffffffffffffffffffffffffffffffffffff168373ffffffffffffffffffffffffffffffffffffffff1603611d7a57806040517f7e273289000000000000000000000000000000000000000000000000000000008152600401611d7191906124bd565b60405180910390fd5b81816040517f177e802f000000000000000000000000000000000000000000000000000000008152600401611db0929190612f53565b60405180910390fd5b505050565b60605f6001611dcc84611f63565b0190505f8167ffffffffffffffff811115611dea57611de9612584565b5b6040519080825280601f01601f191660200182016040528015611e1c5781602001600182028036833780820191505090505b5090505f82602001820190505b600115611e7d578080600190039150507f3031323334353637383961626364656600000000000000000000000000000000600a86061a8153600a8581611e7257611e71612f7a565b5b0494505f8503611e29575b819350505050919050565b611e9283836120b4565b611e9e5f8484846117f5565b505050565b5f8073ffffffffffffffffffffffffffffffffffffffff168373ffffffffffffffffffffffffffffffffffffffff1614158015611f5a57508273ffffffffffffffffffffffffffffffffffffffff168473ffffffffffffffffffffffffffffffffffffffff161480611f1b5750611f1a8484610e3f565b5b80611f5957508273ffffffffffffffffffffffffffffffffffffffff16611f418361117d565b73ffffffffffffffffffffffffffffffffffffffff16145b5b90509392505050565b5f805f90507a184f03e93ff9f4daa797ed6e38ed64bf6a1f0100000000000000008310611fbf577a184f03e93ff9f4daa797ed6e38ed64bf6a1f0100000000000000008381611fb557611fb4612f7a565b5b0492506040810190505b6d04ee2d6d415b85acef81000000008310611ffc576d04ee2d6d415b85acef81000000008381611ff257611ff1612f7a565b5b0492506020810190505b662386f26fc10000831061202b57662386f26fc10000838161202157612020612f7a565b5b0492506010810190505b6305f5e1008310612054576305f5e100838161204a57612049612f7a565b5b0492506008810190505b612710831061207957612710838161206f5761206e612f7a565b5b0492506004810190505b6064831061209c576064838161209257612091612f7a565b5b0492506002810190505b600a83106120ab576001810190505b80915050919050565b5f73ffffffffffffffffffffffffffffffffffffffff168273ffffffffffffffffffffffffffffffffffffffff1603612124575f6040517f64a0ae9200000000000000000000000000000000000000000000000000000000815260040161211b91906123b2565b60405180910390fd5b5f61213083835f6111cf565b90505f73ffffffffffffffffffffffffffffffffffffffff168173ffffffffffffffffffffffffffffffffffffffff16146121a2575f6040517f73c6ac6e00000000000000000000000000000000000000000000000000000000815260040161219991906123b2565b60405180910390fd5b505050565b5f604051905090565b5f80fd5b5f80fd5b5f7fffffffff0000000000000000000000000000000000000000000000000000000082169050919050565b6121ec816121b8565b81146121f6575f80fd5b50565b5f81359050612207816121e3565b92915050565b5f60208284031215612222576122216121b0565b5b5f61222f848285016121f9565b91505092915050565b5f8115159050919050565b61224c81612238565b82525050565b5f6020820190506122655f830184612243565b92915050565b5f81519050919050565b5f82825260208201905092915050565b5f5b838110156122a2578082015181840152602081019050612287565b5f8484015250505050565b5f601f19601f8301169050919050565b5f6122c78261226b565b6122d18185612275565b93506122e1818560208601612285565b6122ea816122ad565b840191505092915050565b5f6020820190508181035f83015261230d81846122bd565b905092915050565b5f819050919050565b61232781612315565b8114612331575f80fd5b50565b5f813590506123428161231e565b92915050565b5f6020828403121561235d5761235c6121b0565b5b5f61236a84828501612334565b91505092915050565b5f73ffffffffffffffffffffffffffffffffffffffff82169050919050565b5f61239c82612373565b9050919050565b6123ac81612392565b82525050565b5f6020820190506123c55f8301846123a3565b92915050565b6123d481612392565b81146123de575f80fd5b50565b5f813590506123ef816123cb565b92915050565b5f806040838503121561240b5761240a6121b0565b5b5f612418858286016123e1565b925050602061242985828601612334565b9150509250929050565b5f805f6060848603121561244a576124496121b0565b5b5f612457868287016123e1565b9350506020612468868287016123e1565b925050604061247986828701612334565b9150509250925092565b5f60208284031215612498576124976121b0565b5b5f6124a5848285016123e1565b91505092915050565b6124b781612315565b82525050565b5f6020820190506124d05f8301846124ae565b92915050565b5f80604083850312156124ec576124eb6121b0565b5b5f6124f985828601612334565b925050602061250a85828601612334565b9150509250929050565b61251d81612238565b8114612527575f80fd5b50565b5f8135905061253881612514565b92915050565b5f8060408385031215612554576125536121b0565b5b5f612561858286016123e1565b92505060206125728582860161252a565b9150509250929050565b5f80fd5b5f80fd5b7f4e487b71000000000000000000000000000000000000000000000000000000005f52604160045260245ffd5b6125ba826122ad565b810181811067ffffffffffffffff821117156125d9576125d8612584565b5b80604052505050565b5f6125eb6121a7565b90506125f782826125b1565b919050565b5f67ffffffffffffffff82111561261657612615612584565b5b61261f826122ad565b9050602081019050919050565b828183375f83830152505050565b5f61264c612647846125fc565b6125e2565b90508281526020810184848401111561266857612667612580565b5b61267384828561262c565b509392505050565b5f82601f83011261268f5761268e61257c565b5b813561269f84826020860161263a565b91505092915050565b5f805f80608085870312156126c0576126bf6121b0565b5b5f6126cd878288016123e1565b94505060206126de878288016123e1565b93505060406126ef87828801612334565b925050606085013567ffffffffffffffff8111156127105761270f6121b4565b5b61271c8782880161267b565b91505092959194509250565b5f806040838503121561273e5761273d6121b0565b5b5f61274b858286016123e1565b925050602061275c858286016123e1565b9150509250929050565b5f67ffffffffffffffff8211156127805761277f612584565b5b612789826122ad565b9050602081019050919050565b5f6127a86127a384612766565b6125e2565b9050828152602081018484840111156127c4576127c3612580565b5b6127cf84828561262c565b509392505050565b5f82601f8301126127eb576127ea61257c565b5b81356127fb848260208601612796565b91505092915050565b5f60208284031215612819576128186121b0565b5b5f82013567ffffffffffffffff811115612836576128356121b4565b5b612842848285016127d7565b91505092915050565b7f4e487b71000000000000000000000000000000000000000000000000000000005f52602260045260245ffd5b5f600282049050600182168061288f57607f821691505b6020821081036128a2576128a161284b565b5b50919050565b5f6060820190506128bb5f8301866123a3565b6128c860208301856124ae565b6128d560408301846123a3565b949350505050565b7f4e4654206973206e6f7420666f722073616c65000000000000000000000000005f82015250565b5f612911601383612275565b915061291c826128dd565b602082019050919050565b5f6020820190508181035f83015261293e81612905565b9050919050565b7f496e636f72726563742076616c75652073656e740000000000000000000000005f82015250565b5f612979601483612275565b915061298482612945565b602082019050919050565b5f6020820190508181035f8301526129a68161296d565b9050919050565b5f6060820190506129c05f8301866124ae565b6129cd60208301856123a3565b6129da60408301846124ae565b949350505050565b7f4f6e6c79206f776e65722063616e206c697374000000000000000000000000005f82015250565b5f612a16601383612275565b9150612a21826129e2565b602082019050919050565b5f6020820190508181035f830152612a4381612a0a565b9050919050565b7f50726963652073686f756c642062652067726561746572207468616e207a65725f8201527f6f00000000000000000000000000000000000000000000000000000000000000602082015250565b5f612aa4602183612275565b9150612aaf82612a4a565b604082019050919050565b5f6020820190508181035f830152612ad181612a98565b9050919050565b5f604082019050612aeb5f8301856124ae565b612af860208301846124ae565b9392505050565b5f81905092915050565b5f612b138261226b565b612b1d8185612aff565b9350612b2d818560208601612285565b80840191505092915050565b5f612b448285612b09565b9150612b508284612b09565b91508190509392505050565b7f4e487b71000000000000000000000000000000000000000000000000000000005f52601160045260245ffd5b5f612b9382612315565b91507fffffffffffffffffffffffffffffffffffffffffffffffffffffffffffffffff8203612bc557612bc4612b5c565b5b600182019050919050565b5f606082019050612be35f8301866124ae565b612bf060208301856123a3565b8181036040830152612c0281846122bd565b9050949350505050565b5f81519050919050565b5f82825260208201905092915050565b5f612c3082612c0c565b612c3a8185612c16565b9350612c4a818560208601612285565b612c53816122ad565b840191505092915050565b5f608082019050612c715f8301876123a3565b612c7e60208301866123a3565b612c8b60408301856124ae565b8181036060830152612c9d8184612c26565b905095945050505050565b5f81519050612cb6816121e3565b92915050565b5f60208284031215612cd157612cd06121b0565b5b5f612cde84828501612ca8565b91505092915050565b5f819050815f5260205f209050919050565b5f6020601f8301049050919050565b5f82821b905092915050565b5f60088302612d437fffffffffffffffffffffffffffffffffffffffffffffffffffffffffffffffff82612d08565b612d4d8683612d08565b95508019841693508086168417925050509392505050565b5f819050919050565b5f612d88612d83612d7e84612315565b612d65565b612315565b9050919050565b5f819050919050565b612da183612d6e565b612db5612dad82612d8f565b848454612d14565b825550505050565b5f90565b612dc9612dbd565b612dd4818484612d98565b505050565b5b81811015612df757612dec5f82612dc1565b600181019050612dda565b5050565b601f821115612e3c57612e0d81612ce7565b612e1684612cf9565b81016020851015612e25578190505b612e39612e3185612cf9565b830182612dd9565b50505b505050565b5f82821c905092915050565b5f612e5c5f1984600802612e41565b1980831691505092915050565b5f612e748383612e4d565b9150826002028217905092915050565b612e8d8261226b565b67ffffffffffffffff811115612ea657612ea5612584565b5b612eb08254612878565b612ebb828285612dfb565b5f60209050601f831160018114612eec575f8415612eda578287015190505b612ee48582612e69565b865550612f4b565b601f198416612efa86612ce7565b5f5b82811015612f2157848901518255600182019150602085019450602081019050612efc565b86831015612f3e5784890151612f3a601f891682612e4d565b8355505b6001600288020188555050505b505050505050565b5f604082019050612f665f8301856123a3565b612f7360208301846124ae565b9392505050565b7f4e487b71000000000000000000000000000000000000000000000000000000005f52601260045260245ffdfea2646970667358221220479a2040821ab5a987b32f7601fc99953722bcb6c0f62bf89e1d0b93e7b4dc3564736f6c63430008140033",
  "immutableReferences": {},
  "source": "// SPDX-License-Identifier: MIT\npragma solidity ^0.8.20;\n\nimport \"@openzeppelin/contracts/token/ERC721/ERC721.sol\";\nimport \"@openzeppelin/contracts/token/ERC721/extensions/ERC721URIStorage.sol\";\nimport \"@openzeppelin/contracts/access/Ownable.sol\";\n\ncontract ArtGalleryNFT is ERC721URIStorage, Ownable {\n    uint256 public tokenCounter;\n    mapping(uint256 => address) public creators;\n    mapping(uint256 => uint256) public prices;\n    mapping(uint256 => bool) public listedForSale;\n\n    event Minted(uint256 tokenId, address creator, string tokenURI);\n    event ListedForSale(uint256 tokenId, uint256 price);\n    event Sold(uint256 tokenId, address buyer, uint256 price);\n\n    constructor() ERC721(\"ArtGalleryNFT\", \"AGNFT\") Ownable(msg.sender) {\n        tokenCounter = 0;\n    }\n\n    function mintNFT(string memory tokenURI) public returns (uint256) {\n        uint256 newItemId = tokenCounter;\n        _safeMint(msg.sender, newItemId);\n        _setTokenURI(newItemId, tokenURI);\n        creators[newItemId] = msg.sender;\n        tokenCounter++;\n        emit Minted(newItemId, msg.sender, tokenURI);\n        return newItemId;\n    }\n\n    function listNFT(uint256 tokenId, uint256 price) public {\n        require(ownerOf(tokenId) == msg.sender, \"Only owner can list\");\n        require(price > 0, \"Price should be greater than zero\");\n        prices[tokenId] = price;\n        listedForSale[tokenId] = true;\n        emit ListedForSale(tokenId, price);\n    }\n\n    function buyNFT(uint256 tokenId) public payable {\n        require(listedForSale[tokenId], \"NFT is not for sale\");\n        require(msg.value == prices[tokenId], \"Incorrect value sent\");\n\n        address seller = ownerOf(tokenId);\n        _transfer(seller, msg.sender, tokenId);\n        payable(seller).transfer(msg.value);\n\n        listedForSale[tokenId] = false;\n        prices[tokenId] = 0;\n\n        emit Sold(tokenId, msg.sender, msg.value);\n    }\n\n    function getCreator(uint256 tokenId) public view returns (address) {\n        return creators[tokenId];\n    }\n\n}",
  "sourcePath": "D:\\ours\\projects\\dev\\ArtGalleryNFT\\contracts\\ArtGalleryNFT.sol",
  "compiler": {
    "name": "solc",
    "version": "0.8.20+commit.a1b79de6.Emscripten.clang"
  },
  "schemaVersion": "3.4.16",
  "updatedAt": "2024-07-04T12:22:41.320Z",
  "devdoc": {
    "errors": {
      "ERC721IncorrectOwner(address,uint256,address)": [
        {
          "details": "Indicates an error related to the ownership over a particular token. Used in transfers.",
          "params": {
            "owner": "Address of the current owner of a token.",
            "sender": "Address whose tokens are being transferred.",
            "tokenId": "Identifier number of a token."
          }
        }
      ],
      "ERC721InsufficientApproval(address,uint256)": [
        {
          "details": "Indicates a failure with the `operator`s approval. Used in transfers.",
          "params": {
            "operator": "Address that may be allowed to operate on tokens without being their owner.",
            "tokenId": "Identifier number of a token."
          }
        }
      ],
      "ERC721InvalidApprover(address)": [
        {
          "details": "Indicates a failure with the `approver` of a token to be approved. Used in approvals.",
          "params": {
            "approver": "Address initiating an approval operation."
          }
        }
      ],
      "ERC721InvalidOperator(address)": [
        {
          "details": "Indicates a failure with the `operator` to be approved. Used in approvals.",
          "params": {
            "operator": "Address that may be allowed to operate on tokens without being their owner."
          }
        }
      ],
      "ERC721InvalidOwner(address)": [
        {
          "details": "Indicates that an address can't be an owner. For example, `address(0)` is a forbidden owner in EIP-20. Used in balance queries.",
          "params": {
            "owner": "Address of the current owner of a token."
          }
        }
      ],
      "ERC721InvalidReceiver(address)": [
        {
          "details": "Indicates a failure with the token `receiver`. Used in transfers.",
          "params": {
            "receiver": "Address to which tokens are being transferred."
          }
        }
      ],
      "ERC721InvalidSender(address)": [
        {
          "details": "Indicates a failure with the token `sender`. Used in transfers.",
          "params": {
            "sender": "Address whose tokens are being transferred."
          }
        }
      ],
      "ERC721NonexistentToken(uint256)": [
        {
          "details": "Indicates a `tokenId` whose `owner` is the zero address.",
          "params": {
            "tokenId": "Identifier number of a token."
          }
        }
      ],
      "OwnableInvalidOwner(address)": [
        {
          "details": "The owner is not a valid owner account. (eg. `address(0)`)"
        }
      ],
      "OwnableUnauthorizedAccount(address)": [
        {
          "details": "The caller account is not authorized to perform an operation."
        }
      ]
    },
    "events": {
      "Approval(address,address,uint256)": {
        "details": "Emitted when `owner` enables `approved` to manage the `tokenId` token."
      },
      "ApprovalForAll(address,address,bool)": {
        "details": "Emitted when `owner` enables or disables (`approved`) `operator` to manage all of its assets."
      },
      "BatchMetadataUpdate(uint256,uint256)": {
        "details": "This event emits when the metadata of a range of tokens is changed. So that the third-party platforms such as NFT market could timely update the images and related attributes of the NFTs."
      },
      "MetadataUpdate(uint256)": {
        "details": "This event emits when the metadata of a token is changed. So that the third-party platforms such as NFT market could timely update the images and related attributes of the NFT."
      },
      "Transfer(address,address,uint256)": {
        "details": "Emitted when `tokenId` token is transferred from `from` to `to`."
      }
    },
    "kind": "dev",
    "methods": {
      "approve(address,uint256)": {
        "details": "See {IERC721-approve}."
      },
      "balanceOf(address)": {
        "details": "See {IERC721-balanceOf}."
      },
      "getApproved(uint256)": {
        "details": "See {IERC721-getApproved}."
      },
      "isApprovedForAll(address,address)": {
        "details": "See {IERC721-isApprovedForAll}."
      },
      "name()": {
        "details": "See {IERC721Metadata-name}."
      },
      "owner()": {
        "details": "Returns the address of the current owner."
      },
      "ownerOf(uint256)": {
        "details": "See {IERC721-ownerOf}."
      },
      "renounceOwnership()": {
        "details": "Leaves the contract without owner. It will not be possible to call `onlyOwner` functions. Can only be called by the current owner. NOTE: Renouncing ownership will leave the contract without an owner, thereby disabling any functionality that is only available to the owner."
      },
      "safeTransferFrom(address,address,uint256)": {
        "details": "See {IERC721-safeTransferFrom}."
      },
      "safeTransferFrom(address,address,uint256,bytes)": {
        "details": "See {IERC721-safeTransferFrom}."
      },
      "setApprovalForAll(address,bool)": {
        "details": "See {IERC721-setApprovalForAll}."
      },
      "supportsInterface(bytes4)": {
        "details": "See {IERC165-supportsInterface}"
      },
      "symbol()": {
        "details": "See {IERC721Metadata-symbol}."
      },
      "tokenURI(uint256)": {
        "details": "See {IERC721Metadata-tokenURI}."
      },
      "transferFrom(address,address,uint256)": {
        "details": "See {IERC721-transferFrom}."
      },
      "transferOwnership(address)": {
        "details": "Transfers ownership of the contract to a new account (`newOwner`). Can only be called by the current owner."
      }
    },
    "version": 1
  },
  "userdoc": {
    "kind": "user",
    "methods": {},
    "version": 1
  }
}